{
  "contractName": "ERC20AC",
  "abi": [
    {
      "inputs": [
        {
          "internalType": "uint256",
          "name": "initialSupply_",
          "type": "uint256"
        }
      ],
      "stateMutability": "nonpayable",
      "type": "constructor"
    },
    {
      "anonymous": false,
      "inputs": [
        {
          "indexed": true,
          "internalType": "address",
          "name": "owner",
          "type": "address"
        },
        {
          "indexed": true,
          "internalType": "address",
          "name": "spender",
          "type": "address"
        },
        {
          "indexed": false,
          "internalType": "uint256",
          "name": "value",
          "type": "uint256"
        }
      ],
      "name": "Approval",
      "type": "event"
    },
    {
      "anonymous": false,
      "inputs": [
        {
          "indexed": true,
          "internalType": "bytes32",
          "name": "role",
          "type": "bytes32"
        },
        {
          "indexed": true,
          "internalType": "bytes32",
          "name": "previousAdminRole",
          "type": "bytes32"
        },
        {
          "indexed": true,
          "internalType": "bytes32",
          "name": "newAdminRole",
          "type": "bytes32"
        }
      ],
      "name": "RoleAdminChanged",
      "type": "event"
    },
    {
      "anonymous": false,
      "inputs": [
        {
          "indexed": true,
          "internalType": "bytes32",
          "name": "role",
          "type": "bytes32"
        },
        {
          "indexed": true,
          "internalType": "address",
          "name": "account",
          "type": "address"
        },
        {
          "indexed": true,
          "internalType": "address",
          "name": "sender",
          "type": "address"
        }
      ],
      "name": "RoleGranted",
      "type": "event"
    },
    {
      "anonymous": false,
      "inputs": [
        {
          "indexed": true,
          "internalType": "bytes32",
          "name": "role",
          "type": "bytes32"
        },
        {
          "indexed": true,
          "internalType": "address",
          "name": "account",
          "type": "address"
        },
        {
          "indexed": true,
          "internalType": "address",
          "name": "sender",
          "type": "address"
        }
      ],
      "name": "RoleRevoked",
      "type": "event"
    },
    {
      "anonymous": false,
      "inputs": [
        {
          "indexed": true,
          "internalType": "address",
          "name": "from",
          "type": "address"
        },
        {
          "indexed": true,
          "internalType": "address",
          "name": "to",
          "type": "address"
        },
        {
          "indexed": false,
          "internalType": "uint256",
          "name": "value",
          "type": "uint256"
        }
      ],
      "name": "Transfer",
      "type": "event"
    },
    {
      "inputs": [],
      "name": "DEFAULT_ADMIN_ROLE",
      "outputs": [
        {
          "internalType": "bytes32",
          "name": "",
          "type": "bytes32"
        }
      ],
      "stateMutability": "view",
      "type": "function"
    },
    {
      "inputs": [],
      "name": "MINTER_ROLE",
      "outputs": [
        {
          "internalType": "bytes32",
          "name": "",
          "type": "bytes32"
        }
      ],
      "stateMutability": "view",
      "type": "function"
    },
    {
      "inputs": [
        {
          "internalType": "address",
          "name": "owner",
          "type": "address"
        },
        {
          "internalType": "address",
          "name": "spender",
          "type": "address"
        }
      ],
      "name": "allowance",
      "outputs": [
        {
          "internalType": "uint256",
          "name": "",
          "type": "uint256"
        }
      ],
      "stateMutability": "view",
      "type": "function"
    },
    {
      "inputs": [
        {
          "internalType": "address",
          "name": "spender",
          "type": "address"
        },
        {
          "internalType": "uint256",
          "name": "amount",
          "type": "uint256"
        }
      ],
      "name": "approve",
      "outputs": [
        {
          "internalType": "bool",
          "name": "",
          "type": "bool"
        }
      ],
      "stateMutability": "nonpayable",
      "type": "function"
    },
    {
      "inputs": [
        {
          "internalType": "address",
          "name": "account",
          "type": "address"
        }
      ],
      "name": "balanceOf",
      "outputs": [
        {
          "internalType": "uint256",
          "name": "",
          "type": "uint256"
        }
      ],
      "stateMutability": "view",
      "type": "function"
    },
    {
      "inputs": [],
      "name": "decimals",
      "outputs": [
        {
          "internalType": "uint8",
          "name": "",
          "type": "uint8"
        }
      ],
      "stateMutability": "view",
      "type": "function"
    },
    {
      "inputs": [
        {
          "internalType": "bytes32",
          "name": "role",
          "type": "bytes32"
        }
      ],
      "name": "getRoleAdmin",
      "outputs": [
        {
          "internalType": "bytes32",
          "name": "",
          "type": "bytes32"
        }
      ],
      "stateMutability": "view",
      "type": "function"
    },
    {
      "inputs": [
        {
          "internalType": "bytes32",
          "name": "role",
          "type": "bytes32"
        },
        {
          "internalType": "address",
          "name": "account",
          "type": "address"
        }
      ],
      "name": "grantRole",
      "outputs": [],
      "stateMutability": "nonpayable",
      "type": "function"
    },
    {
      "inputs": [
        {
          "internalType": "bytes32",
          "name": "role",
          "type": "bytes32"
        },
        {
          "internalType": "address",
          "name": "account",
          "type": "address"
        }
      ],
      "name": "hasRole",
      "outputs": [
        {
          "internalType": "bool",
          "name": "",
          "type": "bool"
        }
      ],
      "stateMutability": "view",
      "type": "function"
    },
    {
      "inputs": [],
      "name": "name",
      "outputs": [
        {
          "internalType": "string",
          "name": "",
          "type": "string"
        }
      ],
      "stateMutability": "view",
      "type": "function"
    },
    {
      "inputs": [
        {
          "internalType": "bytes32",
          "name": "role",
          "type": "bytes32"
        },
        {
          "internalType": "address",
          "name": "account",
          "type": "address"
        }
      ],
      "name": "renounceRole",
      "outputs": [],
      "stateMutability": "nonpayable",
      "type": "function"
    },
    {
      "inputs": [
        {
          "internalType": "bytes32",
          "name": "role",
          "type": "bytes32"
        },
        {
          "internalType": "address",
          "name": "account",
          "type": "address"
        }
      ],
      "name": "revokeRole",
      "outputs": [],
      "stateMutability": "nonpayable",
      "type": "function"
    },
    {
      "inputs": [
        {
          "internalType": "bytes4",
          "name": "interfaceId",
          "type": "bytes4"
        }
      ],
      "name": "supportsInterface",
      "outputs": [
        {
          "internalType": "bool",
          "name": "",
          "type": "bool"
        }
      ],
      "stateMutability": "view",
      "type": "function"
    },
    {
      "inputs": [],
      "name": "symbol",
      "outputs": [
        {
          "internalType": "string",
          "name": "",
          "type": "string"
        }
      ],
      "stateMutability": "view",
      "type": "function"
    },
    {
      "inputs": [],
      "name": "totalSupply",
      "outputs": [
        {
          "internalType": "uint256",
          "name": "",
          "type": "uint256"
        }
      ],
      "stateMutability": "view",
      "type": "function"
    },
    {
      "inputs": [
        {
          "internalType": "address",
          "name": "recipient",
          "type": "address"
        },
        {
          "internalType": "uint256",
          "name": "amount",
          "type": "uint256"
        }
      ],
      "name": "transfer",
      "outputs": [
        {
          "internalType": "bool",
          "name": "",
          "type": "bool"
        }
      ],
      "stateMutability": "nonpayable",
      "type": "function"
    },
    {
      "inputs": [
        {
          "internalType": "address",
          "name": "sender",
          "type": "address"
        },
        {
          "internalType": "address",
          "name": "recipient",
          "type": "address"
        },
        {
          "internalType": "uint256",
          "name": "amount",
          "type": "uint256"
        }
      ],
      "name": "transferFrom",
      "outputs": [
        {
          "internalType": "bool",
          "name": "",
          "type": "bool"
        }
      ],
      "stateMutability": "nonpayable",
      "type": "function"
    },
    {
      "inputs": [
        {
          "internalType": "address",
          "name": "minter",
          "type": "address"
        }
      ],
      "name": "promoteMinter",
      "outputs": [],
      "stateMutability": "nonpayable",
      "type": "function"
    },
    {
      "inputs": [
        {
          "internalType": "address",
          "name": "minter",
          "type": "address"
        }
      ],
      "name": "remoteMinter",
      "outputs": [],
      "stateMutability": "nonpayable",
      "type": "function"
    },
    {
      "inputs": [
        {
          "internalType": "address",
          "name": "recipient",
          "type": "address"
        },
        {
          "internalType": "uint256",
          "name": "amount",
          "type": "uint256"
        }
      ],
      "name": "mint",
      "outputs": [],
      "stateMutability": "nonpayable",
      "type": "function"
    }
  ],
  "bytecode": "0x60806040526040518060400160405280600981526020017f45524332304261736500000000000000000000000000000000000000000000008152506001908051906020019062000051929190620002f8565b506040518060400160405280600381526020017f4552430000000000000000000000000000000000000000000000000000000000815250600290805190602001906200009f929190620002f8565b506012600360006101000a81548160ff021916908360ff160217905550348015620000c957600080fd5b5060405162002298380380620022988339818101604052810190620000ef9190620003bf565b8080600681905550600654600460003373ffffffffffffffffffffffffffffffffffffffff1673ffffffffffffffffffffffffffffffffffffffff16815260200190815260200160002081905550506200015d60006001023362000164640100000000026401000000009004565b5062000474565b6200017f828262000183640100000000026401000000009004565b5050565b6200019e828262000286640100000000026401000000009004565b6200028257600160008084815260200190815260200160002060000160008373ffffffffffffffffffffffffffffffffffffffff1673ffffffffffffffffffffffffffffffffffffffff16815260200190815260200160002060006101000a81548160ff02191690831515021790555062000227620002f0640100000000026401000000009004565b73ffffffffffffffffffffffffffffffffffffffff168173ffffffffffffffffffffffffffffffffffffffff16837f2f8788117e7eff1d82e926ec794901d17c78024a50270940304540a733656f0d60405160405180910390a45b5050565b600080600084815260200190815260200160002060000160008373ffffffffffffffffffffffffffffffffffffffff1673ffffffffffffffffffffffffffffffffffffffff16815260200190815260200160002060009054906101000a900460ff16905092915050565b600033905090565b8280546200030690620003f5565b90600052602060002090601f0160209004810192826200032a576000855562000376565b82601f106200034557805160ff191683800117855562000376565b8280016001018555821562000376579182015b828111156200037557825182559160200191906001019062000358565b5b50905062000385919062000389565b5090565b5b80821115620003a45760008160009055506001016200038a565b5090565b600081519050620003b9816200045a565b92915050565b600060208284031215620003d257600080fd5b6000620003e284828501620003a8565b91505092915050565b6000819050919050565b600060028204905060018216806200040e57607f821691505b602082108114156200042557620004246200042b565b5b50919050565b7f4e487b7100000000000000000000000000000000000000000000000000000000600052602260045260246000fd5b6200046581620003eb565b81146200047157600080fd5b50565b611e1480620004846000396000f3fe608060405234801561001057600080fd5b5060043610610149576000357c010000000000000000000000000000000000000000000000000000000090048063370dfe00116100ca578063a217fddf1161008e578063a217fddf14610372578063a9059cbb14610390578063d5391393146103c0578063d547741f146103de578063dd62ed3e146103fa57610149565b8063370dfe00146102bc57806340c10f19146102d857806370a08231146102f457806391d148541461032457806395d89b411461035457610149565b806323b872dd1161011157806323b872dd14610206578063248a9ca3146102365780632f2ff15d14610266578063313ce5671461028257806336568abe146102a057610149565b806301ffc9a71461014e578063065103981461017e57806306fdde031461019a578063095ea7b3146101b857806318160ddd146101e8575b600080fd5b610168600480360381019061016391906116e9565b61042a565b60405161017591906118c4565b60405180910390f35b61019860048036038101906101939190611594565b6104a4565b005b6101a26104e8565b6040516101af91906118fa565b60405180910390f35b6101d260048036038101906101cd9190611648565b610576565b6040516101df91906118c4565b60405180910390f35b6101f0610668565b6040516101fd919061199c565b60405180910390f35b610220600480360381019061021b91906115f9565b610672565b60405161022d91906118c4565b60405180910390f35b610250600480360381019061024b9190611684565b610964565b60405161025d91906118df565b60405180910390f35b610280600480360381019061027b91906116ad565b610983565b005b61028a6109ac565b60405161029791906119b7565b60405180910390f35b6102ba60048036038101906102b591906116ad565b6109bf565b005b6102d660048036038101906102d19190611594565b610a42565b005b6102f260048036038101906102ed9190611648565b610a86565b005b61030e60048036038101906103099190611594565b610b92565b60405161031b919061199c565b60405180910390f35b61033e600480360381019061033991906116ad565b610bdb565b60405161034b91906118c4565b60405180910390f35b61035c610c45565b60405161036991906118fa565b60405180910390f35b61037a610cd3565b60405161038791906118df565b60405180910390f35b6103aa60048036038101906103a59190611648565b610cdb565b6040516103b791906118c4565b60405180910390f35b6103c8610e7a565b6040516103d591906118df565b60405180910390f35b6103f860048036038101906103f391906116ad565b610e9e565b005b610414600480360381019061040f91906115bd565b610ec7565b604051610421919061199c565b60405180910390f35b60007f7965db0b000000000000000000000000000000000000000000000000000000007bffffffffffffffffffffffffffffffffffffffffffffffffffffffff1916827bffffffffffffffffffffffffffffffffffffffffffffffffffffffff1916148061049d575061049c82610f4e565b5b9050919050565b60006001026104ba816104b5610fb8565b610fc0565b6104e47f9f2df0fed2c77648de5860a4cc508cd0818c85b8b8a1ab4ceeef8d981c8956a683610e9e565b5050565b600180546104f590611bc5565b80601f016020809104026020016040519081016040528092919081815260200182805461052190611bc5565b801561056e5780601f106105435761010080835404028352916020019161056e565b820191906000526020600020905b81548152906001019060200180831161055157829003601f168201915b505050505081565b600081600560003373ffffffffffffffffffffffffffffffffffffffff1673ffffffffffffffffffffffffffffffffffffffff16815260200190815260200160002060008573ffffffffffffffffffffffffffffffffffffffff1673ffffffffffffffffffffffffffffffffffffffff168152602001908152602001600020819055508273ffffffffffffffffffffffffffffffffffffffff163373ffffffffffffffffffffffffffffffffffffffff167f8c5be1e5ebec7d5bd14f71427d1e84f3dd0314c0f7b2291e5b200ac8c7c3b92584604051610656919061199c565b60405180910390a36001905092915050565b6000600654905090565b6000600460008573ffffffffffffffffffffffffffffffffffffffff1673ffffffffffffffffffffffffffffffffffffffff168152602001908152602001600020548211156106f6576040517f08c379a00000000000000000000000000000000000000000000000000000000081526004016106ed9061195c565b60405180910390fd5b600560008573ffffffffffffffffffffffffffffffffffffffff1673ffffffffffffffffffffffffffffffffffffffff16815260200190815260200160002060003373ffffffffffffffffffffffffffffffffffffffff1673ffffffffffffffffffffffffffffffffffffffff168152602001908152602001600020548211156107b5576040517f08c379a00000000000000000000000000000000000000000000000000000000081526004016107ac9061193c565b60405180910390fd5b81600460008673ffffffffffffffffffffffffffffffffffffffff1673ffffffffffffffffffffffffffffffffffffffff16815260200190815260200160002060008282546108049190611aa9565b9250508190555081600560008673ffffffffffffffffffffffffffffffffffffffff1673ffffffffffffffffffffffffffffffffffffffff16815260200190815260200160002060003373ffffffffffffffffffffffffffffffffffffffff1673ffffffffffffffffffffffffffffffffffffffff16815260200190815260200160002060008282546108979190611aa9565b9250508190555081600460008573ffffffffffffffffffffffffffffffffffffffff1673ffffffffffffffffffffffffffffffffffffffff16815260200190815260200160002060008282546108ed91906119f9565b925050819055508273ffffffffffffffffffffffffffffffffffffffff168473ffffffffffffffffffffffffffffffffffffffff167fddf252ad1be2c89b69c2b068fc378daa952ba7f163c4a11628f55a4df523b3ef84604051610951919061199c565b60405180910390a3600190509392505050565b6000806000838152602001908152602001600020600101549050919050565b61098c82610964565b61099d81610998610fb8565b610fc0565b6109a7838361105e565b505050565b600360009054906101000a900460ff1681565b6109c7610fb8565b73ffffffffffffffffffffffffffffffffffffffff168173ffffffffffffffffffffffffffffffffffffffff1614610a34576040517f08c379a0000000000000000000000000000000000000000000000000000000008152600401610a2b9061197c565b60405180910390fd5b610a3e828261113e565b5050565b6000600102610a5881610a53610fb8565b610fc0565b610a827f9f2df0fed2c77648de5860a4cc508cd0818c85b8b8a1ab4ceeef8d981c8956a683610983565b5050565b7f9f2df0fed2c77648de5860a4cc508cd0818c85b8b8a1ab4ceeef8d981c8956a6610ab881610ab3610fb8565b610fc0565b8160066000828254610aca91906119f9565b9250508190555081600460008573ffffffffffffffffffffffffffffffffffffffff1673ffffffffffffffffffffffffffffffffffffffff1681526020019081526020016000206000828254610b2091906119f9565b925050819055508273ffffffffffffffffffffffffffffffffffffffff16600073ffffffffffffffffffffffffffffffffffffffff167fddf252ad1be2c89b69c2b068fc378daa952ba7f163c4a11628f55a4df523b3ef84604051610b85919061199c565b60405180910390a3505050565b6000600460008373ffffffffffffffffffffffffffffffffffffffff1673ffffffffffffffffffffffffffffffffffffffff168152602001908152602001600020549050919050565b600080600084815260200190815260200160002060000160008373ffffffffffffffffffffffffffffffffffffffff1673ffffffffffffffffffffffffffffffffffffffff16815260200190815260200160002060009054906101000a900460ff16905092915050565b60028054610c5290611bc5565b80601f0160208091040260200160405190810160405280929190818152602001828054610c7e90611bc5565b8015610ccb5780601f10610ca057610100808354040283529160200191610ccb565b820191906000526020600020905b815481529060010190602001808311610cae57829003601f168201915b505050505081565b600060010281565b6000600460003373ffffffffffffffffffffffffffffffffffffffff1673ffffffffffffffffffffffffffffffffffffffff16815260200190815260200160002054821115610d5f576040517f08c379a0000000000000000000000000000000000000000000000000000000008152600401610d569061195c565b60405180910390fd5b81600460003373ffffffffffffffffffffffffffffffffffffffff1673ffffffffffffffffffffffffffffffffffffffff1681526020019081526020016000206000828254610dae9190611aa9565b9250508190555081600460008573ffffffffffffffffffffffffffffffffffffffff1673ffffffffffffffffffffffffffffffffffffffff1681526020019081526020016000206000828254610e0491906119f9565b925050819055508273ffffffffffffffffffffffffffffffffffffffff163373ffffffffffffffffffffffffffffffffffffffff167fddf252ad1be2c89b69c2b068fc378daa952ba7f163c4a11628f55a4df523b3ef84604051610e68919061199c565b60405180910390a36001905092915050565b7f9f2df0fed2c77648de5860a4cc508cd0818c85b8b8a1ab4ceeef8d981c8956a681565b610ea782610964565b610eb881610eb3610fb8565b610fc0565b610ec2838361113e565b505050565b6000600560008473ffffffffffffffffffffffffffffffffffffffff1673ffffffffffffffffffffffffffffffffffffffff16815260200190815260200160002060008373ffffffffffffffffffffffffffffffffffffffff1673ffffffffffffffffffffffffffffffffffffffff16815260200190815260200160002054905092915050565b60007f01ffc9a7000000000000000000000000000000000000000000000000000000007bffffffffffffffffffffffffffffffffffffffffffffffffffffffff1916827bffffffffffffffffffffffffffffffffffffffffffffffffffffffff1916149050919050565b600033905090565b610fca8282610bdb565b61105a57610fef8173ffffffffffffffffffffffffffffffffffffffff16601461121f565b610ffe8360019004602061121f565b60405160200161100f92919061188a565b6040516020818303038152906040526040517f08c379a000000000000000000000000000000000000000000000000000000000815260040161105191906118fa565b60405180910390fd5b5050565b6110688282610bdb565b61113a57600160008084815260200190815260200160002060000160008373ffffffffffffffffffffffffffffffffffffffff1673ffffffffffffffffffffffffffffffffffffffff16815260200190815260200160002060006101000a81548160ff0219169083151502179055506110df610fb8565b73ffffffffffffffffffffffffffffffffffffffff168173ffffffffffffffffffffffffffffffffffffffff16837f2f8788117e7eff1d82e926ec794901d17c78024a50270940304540a733656f0d60405160405180910390a45b5050565b6111488282610bdb565b1561121b57600080600084815260200190815260200160002060000160008373ffffffffffffffffffffffffffffffffffffffff1673ffffffffffffffffffffffffffffffffffffffff16815260200190815260200160002060006101000a81548160ff0219169083151502179055506111c0610fb8565b73ffffffffffffffffffffffffffffffffffffffff168173ffffffffffffffffffffffffffffffffffffffff16837ff6391f5c32d9c69d2a47ea670b442974b53935d1edc7fd64eb21e047a839171b60405160405180910390a45b5050565b6060600060028360026112329190611a4f565b61123c91906119f9565b67ffffffffffffffff81111561127b577f4e487b7100000000000000000000000000000000000000000000000000000000600052604160045260246000fd5b6040519080825280601f01601f1916602001820160405280156112ad5781602001600182028036833780820191505090505b5090507f30000000000000000000000000000000000000000000000000000000000000008160008151811061130b577f4e487b7100000000000000000000000000000000000000000000000000000000600052603260045260246000fd5b60200101907effffffffffffffffffffffffffffffffffffffffffffffffffffffffffffff1916908160001a9053507f780000000000000000000000000000000000000000000000000000000000000081600181518110611395577f4e487b7100000000000000000000000000000000000000000000000000000000600052603260045260246000fd5b60200101907effffffffffffffffffffffffffffffffffffffffffffffffffffffffffffff1916908160001a905350600060018460026113d59190611a4f565b6113df91906119f9565b90505b60018111156114f2577f3031323334353637383961626364656600000000000000000000000000000000600f861660108110611447577f4e487b7100000000000000000000000000000000000000000000000000000000600052603260045260246000fd5b1a7f0100000000000000000000000000000000000000000000000000000000000000028282815181106114a3577f4e487b7100000000000000000000000000000000000000000000000000000000600052603260045260246000fd5b60200101907effffffffffffffffffffffffffffffffffffffffffffffffffffffffffffff1916908160001a905350600485908060020a82049150509450806114eb90611b9b565b90506113e2565b5060008414611536576040517f08c379a000000000000000000000000000000000000000000000000000000000815260040161152d9061191c565b60405180910390fd5b8091505092915050565b60008135905061154f81611d82565b92915050565b60008135905061156481611d99565b92915050565b60008135905061157981611db0565b92915050565b60008135905061158e81611dc7565b92915050565b6000602082840312156115a657600080fd5b60006115b484828501611540565b91505092915050565b600080604083850312156115d057600080fd5b60006115de85828601611540565b92505060206115ef85828601611540565b9150509250929050565b60008060006060848603121561160e57600080fd5b600061161c86828701611540565b935050602061162d86828701611540565b925050604061163e8682870161157f565b9150509250925092565b6000806040838503121561165b57600080fd5b600061166985828601611540565b925050602061167a8582860161157f565b9150509250929050565b60006020828403121561169657600080fd5b60006116a484828501611555565b91505092915050565b600080604083850312156116c057600080fd5b60006116ce85828601611555565b92505060206116df85828601611540565b9150509250929050565b6000602082840312156116fb57600080fd5b60006117098482850161156a565b91505092915050565b61171b81611aef565b82525050565b61172a81611afb565b82525050565b600061173b826119d2565b61174581856119dd565b9350611755818560208601611b68565b61175e81611c55565b840191505092915050565b6000611774826119d2565b61177e81856119ee565b935061178e818560208601611b68565b80840191505092915050565b60006117a76020836119dd565b91506117b282611c66565b602082019050919050565b60006117ca6016836119dd565b91506117d582611c8f565b602082019050919050565b60006117ed601d836119dd565b91506117f882611cb8565b602082019050919050565b60006118106017836119ee565b915061181b82611ce1565b601782019050919050565b60006118336011836119ee565b915061183e82611d0a565b601182019050919050565b6000611856602f836119dd565b915061186182611d33565b604082019050919050565b61187581611b51565b82525050565b61188481611b5b565b82525050565b600061189582611803565b91506118a18285611769565b91506118ac82611826565b91506118b88284611769565b91508190509392505050565b60006020820190506118d96000830184611712565b92915050565b60006020820190506118f46000830184611721565b92915050565b600060208201905081810360008301526119148184611730565b905092915050565b600060208201905081810360008301526119358161179a565b9050919050565b60006020820190508181036000830152611955816117bd565b9050919050565b60006020820190508181036000830152611975816117e0565b9050919050565b6000602082019050818103600083015261199581611849565b9050919050565b60006020820190506119b1600083018461186c565b92915050565b60006020820190506119cc600083018461187b565b92915050565b600081519050919050565b600082825260208201905092915050565b600081905092915050565b6000611a0482611b51565b9150611a0f83611b51565b9250827fffffffffffffffffffffffffffffffffffffffffffffffffffffffffffffffff03821115611a4457611a43611bf7565b5b828201905092915050565b6000611a5a82611b51565b9150611a6583611b51565b9250817fffffffffffffffffffffffffffffffffffffffffffffffffffffffffffffffff0483118215151615611a9e57611a9d611bf7565b5b828202905092915050565b6000611ab482611b51565b9150611abf83611b51565b925082821015611ad257611ad1611bf7565b5b828203905092915050565b6000611ae882611b31565b9050919050565b60008115159050919050565b6000819050919050565b60007fffffffff0000000000000000000000000000000000000000000000000000000082169050919050565b600073ffffffffffffffffffffffffffffffffffffffff82169050919050565b6000819050919050565b600060ff82169050919050565b60005b83811015611b86578082015181840152602081019050611b6b565b83811115611b95576000848401525b50505050565b6000611ba682611b51565b91506000821415611bba57611bb9611bf7565b5b600182039050919050565b60006002820490506001821680611bdd57607f821691505b60208210811415611bf157611bf0611c26565b5b50919050565b7f4e487b7100000000000000000000000000000000000000000000000000000000600052601160045260246000fd5b7f4e487b7100000000000000000000000000000000000000000000000000000000600052602260045260246000fd5b6000601f19601f8301169050919050565b7f537472696e67733a20686578206c656e67746820696e73756666696369656e74600082015250565b7f616d6f756e7420646964206e6f7420617070726f766500000000000000000000600082015250565b7f616d6f756e742063616e206e6f74206578636565642062616c616e6365000000600082015250565b7f416363657373436f6e74726f6c3a206163636f756e7420000000000000000000600082015250565b7f206973206d697373696e6720726f6c6520000000000000000000000000000000600082015250565b7f416363657373436f6e74726f6c3a2063616e206f6e6c792072656e6f756e636560008201527f20726f6c657320666f722073656c660000000000000000000000000000000000602082015250565b611d8b81611add565b8114611d9657600080fd5b50565b611da281611afb565b8114611dad57600080fd5b50565b611db981611b05565b8114611dc457600080fd5b50565b611dd081611b51565b8114611ddb57600080fd5b5056fea2646970667358221220f195862bf56ffff9c025352818a59c5d5b559d310cb2d63afa4ecb369f0bd96064736f6c63430008040033",
  "immutableReferences": {},
  "source": "// SPDX-License-Identifier: MIT\n\npragma solidity >=0.8.0 <0.9.0;\n\nimport \"@openzeppelin/contracts/access/AccessControl.sol\";\nimport \"./ERC20Base.sol\";\n\n\n\ncontract ERC20AC is IERC20, AccessControl,ERC20Base{\n    bytes32 public constant MINTER_ROLE = keccak256(\"MINTER_ROLE\");\n\n    constructor(uint initialSupply_) ERC20Base(initialSupply_) {\n        _setupRole(DEFAULT_ADMIN_ROLE, msg.sender);\n    }\n    \n    function promoteMinter(address minter) public onlyRole(DEFAULT_ADMIN_ROLE){\n        grantRole(MINTER_ROLE, minter);\n    }\n\n    function remoteMinter(address minter) public onlyRole(DEFAULT_ADMIN_ROLE){\n        revokeRole(MINTER_ROLE, minter);\n    }\n\n    function mint(address recipient, uint amount) public onlyRole(MINTER_ROLE){\n        totalSupply_ += amount;\n\n        balances[recipient] += amount;\n\n        emit Transfer(address(0), recipient, amount);\n    }\n}\n",
  "sourcePath": "/home/nikita/WebstormProjects/untitled1/contracts/ERC20AC.sol",
  "compiler": {
    "name": "solc",
    "version": "0.8.4+commit.c7e474f2.Emscripten.clang"
  },
  "schemaVersion": "3.4.3",
  "updatedAt": "2021-10-14T14:08:09.034Z",
  "devdoc": {
    "kind": "dev",
    "methods": {
      "getRoleAdmin(bytes32)": {
        "details": "Returns the admin role that controls `role`. See {grantRole} and {revokeRole}. To change a role's admin, use {_setRoleAdmin}."
      },
      "grantRole(bytes32,address)": {
        "details": "Grants `role` to `account`. If `account` had not been already granted `role`, emits a {RoleGranted} event. Requirements: - the caller must have ``role``'s admin role."
      },
      "hasRole(bytes32,address)": {
        "details": "Returns `true` if `account` has been granted `role`."
      },
      "renounceRole(bytes32,address)": {
        "details": "Revokes `role` from the calling account. Roles are often managed via {grantRole} and {revokeRole}: this function's purpose is to provide a mechanism for accounts to lose their privileges if they are compromised (such as when a trusted device is misplaced). If the calling account had been granted `role`, emits a {RoleRevoked} event. Requirements: - the caller must be `account`."
      },
      "revokeRole(bytes32,address)": {
        "details": "Revokes `role` from `account`. If `account` had been granted `role`, emits a {RoleRevoked} event. Requirements: - the caller must have ``role``'s admin role."
      },
      "supportsInterface(bytes4)": {
        "details": "See {IERC165-supportsInterface}."
      }
    },
    "version": 1
  },
  "userdoc": {
    "kind": "user",
    "methods": {},
    "version": 1
  }
}